:1000000089C00000D0C10000A4C30000B1C000003E
:10001000AFC00000ADC00000ABC00000A9C0000030
:10002000A7C00000A5C00000A3C00000A1C0000040
:100030009FC000009DC000009BC0000099C0000050
:1000400097C0000095C0000093C0000091C0000060
:100050008FC000007AC100008BC0000089C0000082
:1000600087C00000FCC4000029C5000081C000005A
:100070007FC000007DC000007BC0000079C0000090
:1000800077C0000075C0000073C0000071C00000A0
:100090006FC000006DC000006BC0000069C00000B0
:1000A00067C0000065C0000063C0000061C00000C0
:1000B0005FC000005DC000005BC0000059C00000D0
:1000C00057C0000055C0000053C00000A4C5000088
:1000D000D1C500004DC00000FBC5000028C60000CF
:1000E00047C00000CF021E031E0316031E031E039B
:1000F000DE0200030E031E031E031E031E031E0367
:100100001E031E0304031E03F2021E031E031E032E
:100110000903E70311241FBECFEFD1E2DEBFCDBF3D
:1001200000E00CBF12E0A0E0B2E0EAE6F1E100E09E
:100130000BBF02C007900D92A231B107D9F723E09F
:10014000A2E1B2E001C01D92AD36B207E1F710E0C6
:10015000CAE8D0E000E005C021970109802FFE0128
:10016000C7D7C938D10780E00807B1F774D1FBC7FA
:1001700047CFFC01168A178A108E118E178E168EA5
:100180001182108211A210A213A212A2089585B5A5
:10019000856085BD8BE987BDEEE6F0E080818260F9
:1001A0008083A99A16BC0895E9E6F0E08081826018
:1001B0008083E89AE09A0895CF93DF93EC015098FA
:1001C0000898F2DFCE01E3DFDF91CF910895FC01C3
:1001D000009B17C086899789A08DB18D0196A11DBE
:1001E000B11D868B978BA08FB18F828D938DA48D3F
:1001F000B58D0196A11DB11D828F938FA48FB58FF0
:100200000895009916C086899789A08DB18D0197B0
:10021000A109B109868B978BA08FB18F828D938DA9
:10022000A48DB58D0197A109B109828F938FA48FF9
:10023000B58F0895FC01009B06C0868D978D0196B1
:10024000978F868F07C0009905C0868D978D01977F
:10025000978F868F868D978D8C3F934014F0178EE5
:10026000168E0895CF93DF93EC016E8D7F8D072E50
:10027000000C880B990B25D621E830E840E85AE3BA
:10028000D4D620E030E044EB53E4CFD6E7D59B0151
:1002900079836883283681E038071CF01982188238
:1002A00005C029393E4F14F419821882888199813A
:1002B000DF91CF910895CF92DF92EF92FF920F934B
:1002C0001F93FC0182859385A485B58586879787D2
:1002D000A08BB18B4681578160857185428753879A
:1002E00064877587C280D380E480F580C682D78218
:1002F000E086F18606891789208D318D028313836C
:10030000248335830C0D1D1D2E1D3F1D400F511FD5
:10031000621F731F840F951FA61FB71FB595A79562
:1003200097958795B595A79597958795828B938B8C
:10033000A48BB58B168A178A108E118E1F910F9180
:10034000FF90EF90DF90CF9008951F920F920FB61D
:100350000F9211240BB60F922F933F934F935F93FD
:100360006F937F938F939F93AF93BF93EF93FF937D
:1003700081E080934A0280931B0289E792E09BDF31
:10038000FF91EF91BF91AF919F918F917F916F916D
:100390005F914F913F912F910F900BBE0F900FBE29
:1003A0000F901F9018951F920F920FB60F92112465
:1003B0000BB60F922F933F934F935F936F937F935F
:1003C0008F939F93AF93BF93EF93FF9389E792E04F
:1003D000FEDE89E792E02EDFFF91EF91BF91AF91B2
:1003E0009F918F917F916F915F914F913F912F914D
:1003F0000F900BBE0F900FBE0F901F901895519845
:10040000599AE9E6F0E0808188608083E99AE19A70
:100410000895499B07C06EE170E08DE992E0FCD140
:100420004999F9CF60E070E08DE992E0F5D1E9E714
:10043000F2E0178E168E1092170210921602128E8C
:10044000138E148E158E10927802109277028DE919
:1004500092E0DBC108958DE992E0FED189E792E058
:10046000ABDECDDFEAE0F1E0808181608083EBE00C
:10047000F1E080818E7F80838AE390E09093130285
:10048000809312028AE492E02CD2EAE4F2E00F2E8A
:10049000412C512CF9E76F2EF3EC7F2EF02D458A7D
:1004A000568A678A708E0F2E812C912CF9E7AF2E19
:1004B000F3E4BF2EF02D818A928AA38AB48A0F2E8C
:1004C000F8E6CF2EF1E9DF2EF9E8EF2EF0E4FF2E6B
:1004D000F02D0FE115E82BEE3DE34DEC5CEC60E018
:1004E00071E4CF0120D28BE192E0FBD1EBE1F2E0AD
:1004F000458A568A678A708E818A928AA38AB48ACC
:100500000F2EFCEECF2EF1E5DF2EF8EBEF2EFDE304
:10051000FF2EF02D00E010E098014FE852EC65E06E
:1005200070E4CF0100D2789487E690E0F5D281E0C4
:1005300092E063D389EC9FEF9093150280931402AD
:1005400009EC1FEFA12CB12C0F2EFBE08F2E99246C
:100550009394F02D55245394CAE4D2E00F2EF9E77A
:10056000CF2EF2E0DF2EF02D0F2EFBE1EF2EF2E08A
:10057000FF2EF02D0F2EFDE26F2E712CF02DE5D207
:100580008093180290E0FC01E156F109E731F10592
:1005900008F054C08827EE58FF4F8F4FA9C510921E
:1005A000190210920002F70176A665A6F601178ED1
:1005B000168E128E138E148E158E40C05092190214
:1005C0005092000210931502009314021EA70DA76B
:1005D0001092170210921602F601128E138E148ECC
:1005E000158E2CC010921902509200021EA61DA654
:1005F0008DE992E00AD110921702109216021EC0E5
:100600001092190206DF1AC0F40180818E7F808368
:1006100015C0F40180818160808310C0065F1F4F88
:10062000083711055CF008E710E008C00A5011090E
:100630000938FFEF1F0714F408E81FEF10921802A3
:100640008881882321F080910002811141C0F70147
:100650008081882329F080910002882309F44AC010
:1006600080911A02882341F180911602909117021D
:1006700004970CF051C020C0809114029091150293
:10068000029690931502809314025A0180911402ED
:10069000909115029EA78DA7509200029195819589
:1006A00091091816190644F01092190210921A02B4
:1006B0001092150210921402C80177D289E060D21C
:1006C000809116029091170270D28AE059D257CFCA
:1006D000F60162897389072E000C880B990BF1D300
:1006E000AB01BC01CE0139D1B9D38DE992E094D0F0
:1006F0001882ADCFC601B6DDBC01990F880B990BEE
:10070000E0D3AB01BC01C70128D1A8D38DE992E0A9
:1007100083D0F7011082A4CFF601428D538D648DF2
:10072000758D9A012A193B09C901992324F4882758
:100730009927821B930B843691050CF09DCFA6CF91
:10074000EBE0F1E080818E7F808381E080931A026C
:1007500008951F920F920FB60F9211240BB60F92AD
:100760002F933F934F935F936F937F938F939F93B9
:10077000AF93BF93EF93FF9310929802109297025A
:1007800080911902882349F08091160290911702F6
:100790000196909317028093160280911602909111
:1007A0001702029709F4CCDFFF91EF91BF91AF914F
:1007B0009F918F917F916F915F914F913F912F9179
:1007C0000F900BBE0F900FBE0F901F90189589E7EA
:1007D00092E0CFCC0895249A279A259AE0E8F0E099
:1007E000808182688083E1E8F0E080818A61808393
:1007F00089EF90E0909387008093860008952C9A6B
:100800002F9808952C982F9A08952C9A2F9A109229
:1008100089001092880008950F931F93CF93DF9360
:100820008C01EB011C161D060CF4E9DFC93FD10554
:1008300044F4DD2344F4D195C195D109C801E2DF28
:1008400002C0C9EFD0E0D0938900C0938800DF9147
:10085000CF911F910F910895CF93DF93EC01BBDFF0
:10086000CE01D3DF60E070E0CE01D6DFDF91CF9123
:1008700008958F929F92AF92BF92CF92DF92EF92A4
:10088000FF920F931F93CF93DF93EC014A015B011B
:10089000680179019A01AB01688179818A819B8124
:1008A000D9D2882324F488829982AA82BB82A701A4
:1008B0009601688179818A819B81B3D3181624F4CB
:1008C000C882D982EA82FB82DF91CF911F910F917A
:1008D000FF90EF90DF90CF90BF90AF909F908F9060
:1008E0000895FC01118212821382148215821682ED
:1008F000178210861186128613861486118E128E28
:10090000138E148E158616861786108A15A216A2C7
:1009100017A210A611A612A613A614A616A615A60F
:1009200081E080830895CF92DF92EF92FF920F9340
:100930001F93FC0141835283638374830583168371
:1009400027833087C186D286E386F4861F910F9174
:10095000FF90EF90DF90CF9008958F929F92AF928B
:10096000BF92CF92DF92EF92FF920F931F93CF939C
:10097000DF93EC016A017B016DA57EA5072E000CBB
:10098000880B990B9ED2A7019601FFD1698F7A8FB0
:100990008B8F9C8F2D813E814F81588546D39B0143
:1009A000AC0169A17AA18BA19CA1F0D169A37AA322
:1009B0008BA39CA300E010E028EC31E440E050E081
:1009C00068EC71ECCE010D9654DF298D3A8D4B8D7C
:1009D0005C8D69817A818B819C8127D329A13AA181
:1009E0004BA15CA1D3D14B015C012DA13EA14FA134
:1009F00058A5C701B601C9D129853A854B855C85C3
:100A000014D39B01AC01C501B401BFD129A53AA5FE
:100A10004BA55CA5BBD16D8F7E8F8F8F98A3098965
:100A20001A892B893C894D895E896F89788DCE0121
:100A30004D961FDFCDA2DEA2EFA2F8A66D8D7E8DB2
:100A40008F8D98A1DF91CF911F910F91FF90EF9023
:100A5000DF90CF90BF90AF909F908F9008951F929E
:100A60000F920FB60F9211240BB60F922F938F9304
:100A70009F93EF93FF938091C0002091C6008871EF
:100A8000E0912A03EF5FEF7190912903E91739F0A4
:100A9000E0932A03F0E0E35DFC4F208301C082E095
:100AA00080932803FF91EF919F918F912F910F9049
:100AB0000BBE0F900FBE0F901F9018951F920F92B4
:100AC0000FB60F9211240BB60F928F939F93EF9353
:100AD000FF9390912C0380912B03981769F0E0917C
:100AE0002B03EF5FEF71E0932B03F0E0E35BFC4F30
:100AF00080818093C60005C0E1ECF0E080818F7DAD
:100B00008083FF91EF919F918F910F900BBE0F907B
:100B10000FBE0F901F90189510922C0310922B036C
:100B200010922A0310922903992324F422E020939F
:100B3000C0009F779093C5008093C40088E980939C
:100B4000C10086E08093C200089590912A038091AD
:100B50002903981791F0E0912903EF5FEF71E0937B
:100B60002903F0E0E35DFC4F20818091280390E0B1
:100B7000982F8827820F911D089580E091E00895B5
:100B800020912C032F5F2F7190912B032917E1F3F4
:100B9000E22FF0E0E35BFC4F808320932C03E1EC39
:100BA000F0E080818062808308950F931F93CF933C
:100BB000DF93CDB7DEB72F970FB6F894DEBF0FBE29
:100BC000CDBF4AE0BE016F5F7F4F9AD289818823F3
:100BD00049F08E010E5F1F4FD3DFF80181918F0125
:100BE0008111FACF2F960FB6F894DEBF0FBECDBF9E
:100BF000DF91CF911F910F910895CF93DF93EC0177
:100C00008881882329F02196BBDF89918111FCCF4F
:100C1000DF91CF9108951F920F920FB60F9211247A
:100C20000BB60F922F938F939F93EF93FF93809127
:100C3000D0002091D6008871E091E502EF5FEF715E
:100C40009091E402E91739F0E093E502F0E0E85111
:100C5000FD4F208301C082E08093E302FF91EF917A
:100C60009F918F912F910F900BBE0F900FBE0F9001
:100C70001F9018951F920F920FB60F9211240BB66A
:100C80000F928F939F93EF93FF939091E702809140
:100C9000E602981769F0E091E602EF5FEF71E093EA
:100CA000E602F0E0E85FFC4F80818093D60005C04B
:100CB000E1EDF0E080818F7D8083FF91EF919F9146
:100CC0008F910F900BBE0F900FBE0F901F90189535
:100CD0001F920F920FB60F9211240BB60F922F9303
:100CE0008F939F93EF93FF93809130012091360172
:100CF0008871E091A002EF5FEF7190919F02E91778
:100D000039F0E093A002F0E0ED55FD4F208301C0E3
:100D100082E080939E02FF91EF919F918F912F919E
:100D20000F900BBE0F900FBE0F901F9018951F9243
:100D30000F920FB60F9211240BB60F928F939F93C1
:100D4000EF93FF939091A2028091A102981769F00E
:100D5000E091A102EF5FEF71E093A102F0E0ED53AB
:100D6000FD4F80818093360105C0E1E3F1E0808191
:100D70008F7D8083FF91EF919F918F910F900BBE9C
:100D80000F900FBE0F901F9018955058BB27AA27A1
:100D90000ED00DC1FED030F003D120F031F49F3FD2
:100DA00011F41EF4F3C00EF4E095E7FBE9C0E92F5F
:100DB0000FD180F3BA17620773078407950718F0FD
:100DC00071F49EF527C10EF4E0950B2EBA2FA02DDD
:100DD0000B01B90190010C01CA01A0011124FF27E8
:100DE000591B99F0593F50F4503E68F11A16F040E3
:100DF000A22F232F342F4427585FF3CF46953795E2
:100E00002795A795F0405395C9F77EF41F16BA0BA6
:100E1000620B730B840BBAF09150A1F0FF0FBB1F54
:100E2000661F771F881FC2F70EC0BA0F621F731F9D
:100E3000841F48F4879577956795B795F7959E3FFA
:100E400008F0B3CF9395880F08F09927EE0F979588
:100E50008795089571D008F481E0089504D06894CE
:100E6000B111D9C00895BCD088F09F5790F0B92F28
:100E70009927B751A0F0D1F0660F771F881F991FEF
:100E80001AF0BA95C9F712C0B13081F0C3D0B1E001
:100E90000895C0C0672F782F8827B85F39F0B93F11
:100EA000CCF3869577956795B395D9F73EF49095F1
:100EB0008095709561957F4F8F4F9F4F0895E8946F
:100EC00009C097FB3EF490958095709561957F4F92
:100ED0008F4F9F4F9923A9F0F92F96E9BB27939540
:100EE000F695879577956795B795F111F8CFFAF450
:100EF000BB0F11F460FF1BC06F5F7F4F8F4F9F4F81
:100F000016C0882311F096E911C0772321F09EE8DE
:100F1000872F762F05C0662371F096E8862F70E044
:100F200060E02AF09A95660F771F881FDAF7880F1E
:100F30009695879597F90895990F0008550FAA0B74
:100F4000E0E8FEEF16161706E807F907C0F01216DC
:100F50001306E407F50798F0621B730B840B950BDF
:100F600039F40A2661F0232B242B252B21F4089534
:100F70000A2609F4A140A6958FEF811D811D0895D1
:100F800097F99F6780E870E060E008959FEF80EC3C
:100F9000089500240A9416161706180609060895DF
:100FA00000240A9412161306140605060895092E45
:100FB0000394000C11F4882352F0BB0F40F4BF2BB4
:100FC00011F460FF04C06F5F7F4F8F4F9F4F0895F4
:100FD00057FD9058440F551F59F05F3F71F04795EA
:100FE000880F97FB991F61F09F3F79F087950895CF
:100FF000121613061406551FF2CF4695F1DF08C0EE
:10100000161617061806991FF1CF8695710561050A
:1010100008940895E894BB2766277727CB0197F9B2
:1010200008958ADF08F48FEF08950BD0C0CFB1DFA9
:1010300028F0B6DF18F0952309F0A2CFA7CF11242E
:10104000EACFC6DFA0F3959FD1F3950F50E0551F6F
:10105000629FF001729FBB27F00DB11D639FAA270D
:10106000F00DB11DAA1F649F6627B00DA11D661F5C
:10107000829F2227B00DA11D621F739FB00DA11D7D
:10108000621F839FA00D611D221F749F3327A00D37
:10109000611D231F849F600D211D822F762F6A2FD3
:1010A00011249F5750408AF0E1F088234AF0EE0F58
:1010B000FF1FBB1F661F771F881F91505040A9F765
:1010C0009E3F510570F05CCFA6CF5F3FECF3983E9A
:1010D000DCF3869577956795B795F795E7959F5FCC
:1010E000C1F7FE2B880F911D9695879597F9089566
:1010F000EE0FFF1F881F8BBF0790F691E02D19940C
:10110000BB274A3031F4992322F4BDE290958195B2
:101110009F4F01C0BB27FB015527AA27880F991FA6
:10112000AA1FA41710F0A41B83955051B9F7A05D16
:10113000AA3308F0A95DA193009779F7B111B19393
:101140001192CB0100C0DC01FC01672F7191772364
:10115000E1F7329704C07C916D9370836291AE1772
:0A116000BF07C8F30895F894FFCF0D
:10116A00014769766520436F6D6D616E64212121A7
:02117A000A0069
:00000001FF
